{
  "_format": "hh-sol-artifact-1",
  "contractName": "BundleNFT",
  "sourceName": "contracts/BundleNFT.sol",
  "abi": [
    {
      "anonymous": false,
      "inputs": [
        {
          "indexed": true,
          "internalType": "address",
          "name": "owner",
          "type": "address"
        },
        {
          "indexed": true,
          "internalType": "address",
          "name": "approved",
          "type": "address"
        },
        {
          "indexed": true,
          "internalType": "uint256",
          "name": "tokenId",
          "type": "uint256"
        }
      ],
      "name": "Approval",
      "type": "event"
    },
    {
      "anonymous": false,
      "inputs": [
        {
          "indexed": true,
          "internalType": "address",
          "name": "owner",
          "type": "address"
        },
        {
          "indexed": true,
          "internalType": "address",
          "name": "operator",
          "type": "address"
        },
        {
          "indexed": false,
          "internalType": "bool",
          "name": "approved",
          "type": "bool"
        }
      ],
      "name": "ApprovalForAll",
      "type": "event"
    },
    {
      "anonymous": false,
      "inputs": [
        {
          "indexed": true,
          "internalType": "address",
          "name": "previousOwner",
          "type": "address"
        },
        {
          "indexed": true,
          "internalType": "address",
          "name": "newOwner",
          "type": "address"
        }
      ],
      "name": "OwnershipTransferred",
      "type": "event"
    },
    {
      "anonymous": false,
      "inputs": [
        {
          "indexed": true,
          "internalType": "address",
          "name": "from",
          "type": "address"
        },
        {
          "indexed": true,
          "internalType": "address",
          "name": "to",
          "type": "address"
        },
        {
          "indexed": true,
          "internalType": "uint256",
          "name": "tokenId",
          "type": "uint256"
        }
      ],
      "name": "Transfer",
      "type": "event"
    },
    {
      "inputs": [
        {
          "internalType": "string",
          "name": "name_",
          "type": "string"
        },
        {
          "internalType": "string",
          "name": "symbol_",
          "type": "string"
        }
      ],
      "name": "__BundleNFT_init",
      "outputs": [],
      "stateMutability": "nonpayable",
      "type": "function"
    },
    {
      "inputs": [
        {
          "internalType": "address",
          "name": "to",
          "type": "address"
        },
        {
          "internalType": "uint256",
          "name": "tokenId",
          "type": "uint256"
        }
      ],
      "name": "approve",
      "outputs": [],
      "stateMutability": "nonpayable",
      "type": "function"
    },
    {
      "inputs": [
        {
          "internalType": "address",
          "name": "owner",
          "type": "address"
        }
      ],
      "name": "balanceOf",
      "outputs": [
        {
          "internalType": "uint256",
          "name": "",
          "type": "uint256"
        }
      ],
      "stateMutability": "view",
      "type": "function"
    },
    {
      "inputs": [
        {
          "internalType": "uint256",
          "name": "_tokenId",
          "type": "uint256"
        }
      ],
      "name": "bundeledTokensOf",
      "outputs": [
        {
          "components": [
            {
              "internalType": "contract IERC721",
              "name": "token",
              "type": "address"
            },
            {
              "internalType": "uint256",
              "name": "tokenId",
              "type": "uint256"
            }
          ],
          "internalType": "struct BundleNFT.NFT[]",
          "name": "",
          "type": "tuple[]"
        }
      ],
      "stateMutability": "view",
      "type": "function"
    },
    {
      "inputs": [],
      "name": "bundleFee",
      "outputs": [
        {
          "internalType": "uint256",
          "name": "",
          "type": "uint256"
        }
      ],
      "stateMutability": "view",
      "type": "function"
    },
    {
      "inputs": [
        {
          "components": [
            {
              "internalType": "contract IERC721",
              "name": "token",
              "type": "address"
            },
            {
              "internalType": "uint256",
              "name": "tokenId",
              "type": "uint256"
            }
          ],
          "internalType": "struct BundleNFT.NFT[]",
          "name": "_tokens",
          "type": "tuple[]"
        },
        {
          "internalType": "string",
          "name": "_tokenURI",
          "type": "string"
        }
      ],
      "name": "bundleWithTokenURI",
      "outputs": [
        {
          "internalType": "uint256",
          "name": "",
          "type": "uint256"
        }
      ],
      "stateMutability": "payable",
      "type": "function"
    },
    {
      "inputs": [
        {
          "internalType": "uint256",
          "name": "",
          "type": "uint256"
        },
        {
          "internalType": "uint256",
          "name": "",
          "type": "uint256"
        }
      ],
      "name": "bundles",
      "outputs": [
        {
          "internalType": "contract IERC721",
          "name": "token",
          "type": "address"
        },
        {
          "internalType": "uint256",
          "name": "tokenId",
          "type": "uint256"
        }
      ],
      "stateMutability": "view",
      "type": "function"
    },
    {
      "inputs": [
        {
          "internalType": "uint256",
          "name": "tokenId",
          "type": "uint256"
        }
      ],
      "name": "getApproved",
      "outputs": [
        {
          "internalType": "address",
          "name": "",
          "type": "address"
        }
      ],
      "stateMutability": "view",
      "type": "function"
    },
    {
      "inputs": [
        {
          "internalType": "address",
          "name": "owner",
          "type": "address"
        },
        {
          "internalType": "address",
          "name": "operator",
          "type": "address"
        }
      ],
      "name": "isApprovedForAll",
      "outputs": [
        {
          "internalType": "bool",
          "name": "",
          "type": "bool"
        }
      ],
      "stateMutability": "view",
      "type": "function"
    },
    {
      "inputs": [],
      "name": "name",
      "outputs": [
        {
          "internalType": "string",
          "name": "",
          "type": "string"
        }
      ],
      "stateMutability": "view",
      "type": "function"
    },
    {
      "inputs": [
        {
          "internalType": "address",
          "name": "",
          "type": "address"
        },
        {
          "internalType": "address",
          "name": "",
          "type": "address"
        },
        {
          "internalType": "uint256",
          "name": "",
          "type": "uint256"
        },
        {
          "internalType": "bytes",
          "name": "",
          "type": "bytes"
        }
      ],
      "name": "onERC721Received",
      "outputs": [
        {
          "internalType": "bytes4",
          "name": "",
          "type": "bytes4"
        }
      ],
      "stateMutability": "pure",
      "type": "function"
    },
    {
      "inputs": [],
      "name": "owner",
      "outputs": [
        {
          "internalType": "address",
          "name": "",
          "type": "address"
        }
      ],
      "stateMutability": "view",
      "type": "function"
    },
    {
      "inputs": [
        {
          "internalType": "uint256",
          "name": "tokenId",
          "type": "uint256"
        }
      ],
      "name": "ownerOf",
      "outputs": [
        {
          "internalType": "address",
          "name": "",
          "type": "address"
        }
      ],
      "stateMutability": "view",
      "type": "function"
    },
    {
      "inputs": [],
      "name": "renounceOwnership",
      "outputs": [],
      "stateMutability": "nonpayable",
      "type": "function"
    },
    {
      "inputs": [
        {
          "internalType": "address",
          "name": "from",
          "type": "address"
        },
        {
          "internalType": "address",
          "name": "to",
          "type": "address"
        },
        {
          "internalType": "uint256",
          "name": "tokenId",
          "type": "uint256"
        }
      ],
      "name": "safeTransferFrom",
      "outputs": [],
      "stateMutability": "nonpayable",
      "type": "function"
    },
    {
      "inputs": [
        {
          "internalType": "address",
          "name": "from",
          "type": "address"
        },
        {
          "internalType": "address",
          "name": "to",
          "type": "address"
        },
        {
          "internalType": "uint256",
          "name": "tokenId",
          "type": "uint256"
        },
        {
          "internalType": "bytes",
          "name": "_data",
          "type": "bytes"
        }
      ],
      "name": "safeTransferFrom",
      "outputs": [],
      "stateMutability": "nonpayable",
      "type": "function"
    },
    {
      "inputs": [
        {
          "internalType": "address",
          "name": "operator",
          "type": "address"
        },
        {
          "internalType": "bool",
          "name": "approved",
          "type": "bool"
        }
      ],
      "name": "setApprovalForAll",
      "outputs": [],
      "stateMutability": "nonpayable",
      "type": "function"
    },
    {
      "inputs": [
        {
          "internalType": "uint256",
          "name": "_fee",
          "type": "uint256"
        }
      ],
      "name": "setBundleFee",
      "outputs": [],
      "stateMutability": "nonpayable",
      "type": "function"
    },
    {
      "inputs": [
        {
          "internalType": "bytes4",
          "name": "interfaceId",
          "type": "bytes4"
        }
      ],
      "name": "supportsInterface",
      "outputs": [
        {
          "internalType": "bool",
          "name": "",
          "type": "bool"
        }
      ],
      "stateMutability": "view",
      "type": "function"
    },
    {
      "inputs": [],
      "name": "symbol",
      "outputs": [
        {
          "internalType": "string",
          "name": "",
          "type": "string"
        }
      ],
      "stateMutability": "view",
      "type": "function"
    },
    {
      "inputs": [
        {
          "internalType": "uint256",
          "name": "index",
          "type": "uint256"
        }
      ],
      "name": "tokenByIndex",
      "outputs": [
        {
          "internalType": "uint256",
          "name": "",
          "type": "uint256"
        }
      ],
      "stateMutability": "view",
      "type": "function"
    },
    {
      "inputs": [
        {
          "internalType": "address",
          "name": "owner",
          "type": "address"
        },
        {
          "internalType": "uint256",
          "name": "index",
          "type": "uint256"
        }
      ],
      "name": "tokenOfOwnerByIndex",
      "outputs": [
        {
          "internalType": "uint256",
          "name": "",
          "type": "uint256"
        }
      ],
      "stateMutability": "view",
      "type": "function"
    },
    {
      "inputs": [
        {
          "internalType": "uint256",
          "name": "tokenId",
          "type": "uint256"
        }
      ],
      "name": "tokenURI",
      "outputs": [
        {
          "internalType": "string",
          "name": "",
          "type": "string"
        }
      ],
      "stateMutability": "view",
      "type": "function"
    },
    {
      "inputs": [],
      "name": "totalSupply",
      "outputs": [
        {
          "internalType": "uint256",
          "name": "",
          "type": "uint256"
        }
      ],
      "stateMutability": "view",
      "type": "function"
    },
    {
      "inputs": [
        {
          "internalType": "address",
          "name": "from",
          "type": "address"
        },
        {
          "internalType": "address",
          "name": "to",
          "type": "address"
        },
        {
          "internalType": "uint256",
          "name": "tokenId",
          "type": "uint256"
        }
      ],
      "name": "transferFrom",
      "outputs": [],
      "stateMutability": "nonpayable",
      "type": "function"
    },
    {
      "inputs": [
        {
          "internalType": "address",
          "name": "newOwner",
          "type": "address"
        }
      ],
      "name": "transferOwnership",
      "outputs": [],
      "stateMutability": "nonpayable",
      "type": "function"
    },
    {
      "inputs": [
        {
          "internalType": "uint256",
          "name": "_tokenId",
          "type": "uint256"
        }
      ],
      "name": "unbundle",
      "outputs": [],
      "stateMutability": "nonpayable",
      "type": "function"
    },
    {
      "inputs": [],
      "name": "withdrawFees",
      "outputs": [],
      "stateMutability": "nonpayable",
      "type": "function"
    }
  ],
  "bytecode": "0x608060405234801561001057600080fd5b5061508c806100206000396000f3fe6080604052600436106101b75760003560e01c8063715018a6116100ec578063cf6e1d111161008a578063f2fde38b11610064578063f2fde38b1461065c578063f8a6386d14610685578063f9b99517146106ae578063ffa5b6da146106d7576101b7565b8063cf6e1d11146105a4578063de2e44af146105e2578063e985e9c51461061f576101b7565b8063a22cb465116100c6578063a22cb465146104e5578063b553795e1461050e578063b88d4fde1461053e578063c87b56dd14610567576101b7565b8063715018a6146104785780638da5cb5b1461048f57806395d89b41146104ba576101b7565b80632f745c5911610159578063476343ee11610133578063476343ee146103aa5780634f6ccce7146103c15780636352211e146103fe57806370a082311461043b576101b7565b80632f745c591461031b57806330a495011461035857806342842e0e14610381576101b7565b8063095ea7b311610195578063095ea7b314610261578063150b7a021461028a57806318160ddd146102c757806323b872dd146102f2576101b7565b806301ffc9a7146101bc57806306fdde03146101f9578063081812fc14610224575b600080fd5b3480156101c857600080fd5b506101e360048036038101906101de91906134f4565b610702565b6040516101f0919061353c565b60405180910390f35b34801561020557600080fd5b5061020e61077c565b60405161021b91906135f0565b60405180910390f35b34801561023057600080fd5b5061024b60048036038101906102469190613648565b61080e565b60405161025891906136b6565b60405180910390f35b34801561026d57600080fd5b50610288600480360381019061028391906136fd565b610893565b005b34801561029657600080fd5b506102b160048036038101906102ac91906137a2565b6109ab565b6040516102be9190613839565b60405180910390f35b3480156102d357600080fd5b506102dc6109c0565b6040516102e99190613863565b60405180910390f35b3480156102fe57600080fd5b506103196004803603810190610314919061387e565b6109cd565b005b34801561032757600080fd5b50610342600480360381019061033d91906136fd565b610a2d565b60405161034f9190613863565b60405180910390f35b34801561036457600080fd5b5061037f600480360381019061037a9190613648565b610ad2565b005b34801561038d57600080fd5b506103a860048036038101906103a3919061387e565b610b58565b005b3480156103b657600080fd5b506103bf610b78565b005b3480156103cd57600080fd5b506103e860048036038101906103e39190613648565b610c3d565b6040516103f59190613863565b60405180910390f35b34801561040a57600080fd5b5061042560048036038101906104209190613648565b610cae565b60405161043291906136b6565b60405180910390f35b34801561044757600080fd5b50610462600480360381019061045d91906138d1565b610d60565b60405161046f9190613863565b60405180910390f35b34801561048457600080fd5b5061048d610e18565b005b34801561049b57600080fd5b506104a4610ea0565b6040516104b191906136b6565b60405180910390f35b3480156104c657600080fd5b506104cf610eca565b6040516104dc91906135f0565b60405180910390f35b3480156104f157600080fd5b5061050c6004803603810190610507919061392a565b610f5c565b005b61052860048036038101906105239190613bf0565b6110dd565b6040516105359190613863565b60405180910390f35b34801561054a57600080fd5b5061056560048036038101906105609190613d09565b6112f5565b005b34801561057357600080fd5b5061058e60048036038101906105899190613648565b611357565b60405161059b91906135f0565b60405180910390f35b3480156105b057600080fd5b506105cb60048036038101906105c69190613d8c565b6114a9565b6040516105d9929190613e2b565b60405180910390f35b3480156105ee57600080fd5b5061060960048036038101906106049190613648565b61150a565b6040516106169190613f50565b60405180910390f35b34801561062b57600080fd5b5061064660048036038101906106419190613f72565b611624565b604051610653919061353c565b60405180910390f35b34801561066857600080fd5b50610683600480360381019061067e91906138d1565b6116b8565b005b34801561069157600080fd5b506106ac60048036038101906106a79190613648565b6117b0565b005b3480156106ba57600080fd5b506106d560048036038101906106d09190613fb2565b6119ea565b005b3480156106e357600080fd5b506106ec611ad7565b6040516106f99190613863565b60405180910390f35b60007f780e9d63000000000000000000000000000000000000000000000000000000007bffffffffffffffffffffffffffffffffffffffffffffffffffffffff1916827bffffffffffffffffffffffffffffffffffffffffffffffffffffffff19161480610775575061077482611add565b5b9050919050565b60606097805461078b90614059565b80601f01602080910402602001604051908101604052809291908181526020018280546107b790614059565b80156108045780601f106107d957610100808354040283529160200191610804565b820191906000526020600020905b8154815290600101906020018083116107e757829003601f168201915b5050505050905090565b600061081982611bbf565b610858576040517f08c379a000000000000000000000000000000000000000000000000000000000815260040161084f906140fd565b60405180910390fd5b609b600083815260200190815260200160002060009054906101000a900473ffffffffffffffffffffffffffffffffffffffff169050919050565b600061089e82610cae565b90508073ffffffffffffffffffffffffffffffffffffffff168373ffffffffffffffffffffffffffffffffffffffff16141561090f576040517f08c379a00000000000000000000000000000000000000000000000000000000081526004016109069061418f565b60405180910390fd5b8073ffffffffffffffffffffffffffffffffffffffff1661092e611c2b565b73ffffffffffffffffffffffffffffffffffffffff16148061095d575061095c81610957611c2b565b611624565b5b61099c576040517f08c379a000000000000000000000000000000000000000000000000000000000815260040161099390614221565b60405180910390fd5b6109a68383611c33565b505050565b600063150b7a0260e01b905095945050505050565b600060cb80549050905090565b6109de6109d8611c2b565b82611cec565b610a1d576040517f08c379a0000000000000000000000000000000000000000000000000000000008152600401610a14906142b3565b60405180910390fd5b610a28838383611dca565b505050565b6000610a3883610d60565b8210610a79576040517f08c379a0000000000000000000000000000000000000000000000000000000008152600401610a7090614345565b60405180910390fd5b60c960008473ffffffffffffffffffffffffffffffffffffffff1673ffffffffffffffffffffffffffffffffffffffff168152602001908152602001600020600083815260200190815260200160002054905092915050565b610ada611c2b565b73ffffffffffffffffffffffffffffffffffffffff16610af8610ea0565b73ffffffffffffffffffffffffffffffffffffffff1614610b4e576040517f08c379a0000000000000000000000000000000000000000000000000000000008152600401610b45906143b1565b60405180910390fd5b8060fc8190555050565b610b73838383604051806020016040528060008152506112f5565b505050565b610b80611c2b565b73ffffffffffffffffffffffffffffffffffffffff16610b9e610ea0565b73ffffffffffffffffffffffffffffffffffffffff1614610bf4576040517f08c379a0000000000000000000000000000000000000000000000000000000008152600401610beb906143b1565b60405180910390fd5b3373ffffffffffffffffffffffffffffffffffffffff166108fc479081150290604051600060405180830381858888f19350505050158015610c3a573d6000803e3d6000fd5b50565b6000610c476109c0565b8210610c88576040517f08c379a0000000000000000000000000000000000000000000000000000000008152600401610c7f90614443565b60405180910390fd5b60cb8281548110610c9c57610c9b614463565b5b90600052602060002001549050919050565b6000806099600084815260200190815260200160002060009054906101000a900473ffffffffffffffffffffffffffffffffffffffff169050600073ffffffffffffffffffffffffffffffffffffffff168173ffffffffffffffffffffffffffffffffffffffff161415610d57576040517f08c379a0000000000000000000000000000000000000000000000000000000008152600401610d4e90614504565b60405180910390fd5b80915050919050565b60008073ffffffffffffffffffffffffffffffffffffffff168273ffffffffffffffffffffffffffffffffffffffff161415610dd1576040517f08c379a0000000000000000000000000000000000000000000000000000000008152600401610dc890614596565b60405180910390fd5b609a60008373ffffffffffffffffffffffffffffffffffffffff1673ffffffffffffffffffffffffffffffffffffffff168152602001908152602001600020549050919050565b610e20611c2b565b73ffffffffffffffffffffffffffffffffffffffff16610e3e610ea0565b73ffffffffffffffffffffffffffffffffffffffff1614610e94576040517f08c379a0000000000000000000000000000000000000000000000000000000008152600401610e8b906143b1565b60405180910390fd5b610e9e6000612026565b565b6000603360009054906101000a900473ffffffffffffffffffffffffffffffffffffffff16905090565b606060988054610ed990614059565b80601f0160208091040260200160405190810160405280929190818152602001828054610f0590614059565b8015610f525780601f10610f2757610100808354040283529160200191610f52565b820191906000526020600020905b815481529060010190602001808311610f3557829003601f168201915b5050505050905090565b610f64611c2b565b73ffffffffffffffffffffffffffffffffffffffff168273ffffffffffffffffffffffffffffffffffffffff161415610fd2576040517f08c379a0000000000000000000000000000000000000000000000000000000008152600401610fc990614602565b60405180910390fd5b80609c6000610fdf611c2b565b73ffffffffffffffffffffffffffffffffffffffff1673ffffffffffffffffffffffffffffffffffffffff16815260200190815260200160002060008473ffffffffffffffffffffffffffffffffffffffff1673ffffffffffffffffffffffffffffffffffffffff16815260200190815260200160002060006101000a81548160ff0219169083151502179055508173ffffffffffffffffffffffffffffffffffffffff1661108c611c2b565b73ffffffffffffffffffffffffffffffffffffffff167f17307eab39ab6107e8899845ad3d59bd9653f200f220920489ca2b5937696c31836040516110d1919061353c565b60405180910390a35050565b600060fc54341015611124576040517f08c379a000000000000000000000000000000000000000000000000000000000815260040161111b9061466e565b60405180910390fd5b6000836040516020016111379190613f50565b6040516020818303038152906040528051906020012060001c9050600083905060005b85518110156112cb5785818151811061117657611175614463565b5b60200260200101516000015173ffffffffffffffffffffffffffffffffffffffff166342842e0e33308985815181106111b2576111b1614463565b5b6020026020010151602001516040518463ffffffff1660e01b81526004016111dc9392919061468e565b600060405180830381600087803b1580156111f657600080fd5b505af115801561120a573d6000803e3d6000fd5b5050505060fb600084815260200190815260200160002086828151811061123457611233614463565b5b6020026020010151908060018154018082558091505060019003906000526020600020906002020160009091909190915060008201518160000160006101000a81548173ffffffffffffffffffffffffffffffffffffffff021916908373ffffffffffffffffffffffffffffffffffffffff16021790555060208201518160010155505080806112c3906146f4565b91505061115a565b506112d633836120ec565b60008151146112ea576112e9828561210a565b5b819250505092915050565b611306611300611c2b565b83611cec565b611345576040517f08c379a000000000000000000000000000000000000000000000000000000000815260040161133c906142b3565b60405180910390fd5b6113518484848461217e565b50505050565b606061136282611bbf565b6113a1576040517f08c379a0000000000000000000000000000000000000000000000000000000008152600401611398906147af565b60405180910390fd5b600060fd600084815260200190815260200160002080546113c190614059565b80601f01602080910402602001604051908101604052809291908181526020018280546113ed90614059565b801561143a5780601f1061140f5761010080835404028352916020019161143a565b820191906000526020600020905b81548152906001019060200180831161141d57829003601f168201915b50505050509050600061144b6121da565b90506000815114156114615781925050506114a4565b60008251111561149657808260405160200161147e92919061480b565b604051602081830303815290604052925050506114a4565b61149f846121f1565b925050505b919050565b60fb60205281600052604060002081815481106114c557600080fd5b9060005260206000209060020201600091509150508060000160009054906101000a900473ffffffffffffffffffffffffffffffffffffffff16908060010154905082565b606061151582611bbf565b611554576040517f08c379a000000000000000000000000000000000000000000000000000000000815260040161154b906148a1565b60405180910390fd5b60fb6000838152602001908152602001600020805480602002602001604051908101604052809291908181526020016000905b8282101561161957838290600052602060002090600202016040518060400160405290816000820160009054906101000a900473ffffffffffffffffffffffffffffffffffffffff1673ffffffffffffffffffffffffffffffffffffffff1673ffffffffffffffffffffffffffffffffffffffff16815260200160018201548152505081526020019060010190611587565b505050509050919050565b6000609c60008473ffffffffffffffffffffffffffffffffffffffff1673ffffffffffffffffffffffffffffffffffffffff16815260200190815260200160002060008373ffffffffffffffffffffffffffffffffffffffff1673ffffffffffffffffffffffffffffffffffffffff16815260200190815260200160002060009054906101000a900460ff16905092915050565b6116c0611c2b565b73ffffffffffffffffffffffffffffffffffffffff166116de610ea0565b73ffffffffffffffffffffffffffffffffffffffff1614611734576040517f08c379a000000000000000000000000000000000000000000000000000000000815260040161172b906143b1565b60405180910390fd5b600073ffffffffffffffffffffffffffffffffffffffff168173ffffffffffffffffffffffffffffffffffffffff1614156117a4576040517f08c379a000000000000000000000000000000000000000000000000000000000815260040161179b90614933565b60405180910390fd5b6117ad81612026565b50565b3373ffffffffffffffffffffffffffffffffffffffff166117d082610cae565b73ffffffffffffffffffffffffffffffffffffffff1614611826576040517f08c379a000000000000000000000000000000000000000000000000000000000815260040161181d906149c5565b60405180910390fd5b600060fb6000838152602001908152602001600020805480602002602001604051908101604052809291908181526020016000905b828210156118ed57838290600052602060002090600202016040518060400160405290816000820160009054906101000a900473ffffffffffffffffffffffffffffffffffffffff1673ffffffffffffffffffffffffffffffffffffffff1673ffffffffffffffffffffffffffffffffffffffff1681526020016001820154815250508152602001906001019061185b565b5050505090506118fc82612298565b60fb6000838152602001908152602001600020600061191b919061333b565b60005b81518110156119e55781818151811061193a57611939614463565b5b60200260200101516000015173ffffffffffffffffffffffffffffffffffffffff166342842e0e303385858151811061197657611975614463565b5b6020026020010151602001516040518463ffffffff1660e01b81526004016119a09392919061468e565b600060405180830381600087803b1580156119ba57600080fd5b505af11580156119ce573d6000803e3d6000fd5b5050505080806119dd906146f4565b91505061191e565b505050565b600060019054906101000a900460ff1680611a10575060008054906101000a900460ff16155b611a4f576040517f08c379a0000000000000000000000000000000000000000000000000000000008152600401611a4690614a57565b60405180910390fd5b60008060019054906101000a900460ff161590508015611a9f576001600060016101000a81548160ff02191690831515021790555060016000806101000a81548160ff0219169083151502179055505b611aa76122eb565b611ab183836123d4565b8015611ad25760008060016101000a81548160ff0219169083151502179055505b505050565b60fc5481565b60007f80ac58cd000000000000000000000000000000000000000000000000000000007bffffffffffffffffffffffffffffffffffffffffffffffffffffffff1916827bffffffffffffffffffffffffffffffffffffffffffffffffffffffff19161480611ba857507f5b5e139f000000000000000000000000000000000000000000000000000000007bffffffffffffffffffffffffffffffffffffffffffffffffffffffff1916827bffffffffffffffffffffffffffffffffffffffffffffffffffffffff1916145b80611bb85750611bb7826124c9565b5b9050919050565b60008073ffffffffffffffffffffffffffffffffffffffff166099600084815260200190815260200160002060009054906101000a900473ffffffffffffffffffffffffffffffffffffffff1673ffffffffffffffffffffffffffffffffffffffff1614159050919050565b600033905090565b81609b600083815260200190815260200160002060006101000a81548173ffffffffffffffffffffffffffffffffffffffff021916908373ffffffffffffffffffffffffffffffffffffffff160217905550808273ffffffffffffffffffffffffffffffffffffffff16611ca683610cae565b73ffffffffffffffffffffffffffffffffffffffff167f8c5be1e5ebec7d5bd14f71427d1e84f3dd0314c0f7b2291e5b200ac8c7c3b92560405160405180910390a45050565b6000611cf782611bbf565b611d36576040517f08c379a0000000000000000000000000000000000000000000000000000000008152600401611d2d90614ae9565b60405180910390fd5b6000611d4183610cae565b90508073ffffffffffffffffffffffffffffffffffffffff168473ffffffffffffffffffffffffffffffffffffffff161480611db057508373ffffffffffffffffffffffffffffffffffffffff16611d988461080e565b73ffffffffffffffffffffffffffffffffffffffff16145b80611dc15750611dc08185611624565b5b91505092915050565b8273ffffffffffffffffffffffffffffffffffffffff16611dea82610cae565b73ffffffffffffffffffffffffffffffffffffffff1614611e40576040517f08c379a0000000000000000000000000000000000000000000000000000000008152600401611e37906149c5565b60405180910390fd5b600073ffffffffffffffffffffffffffffffffffffffff168273ffffffffffffffffffffffffffffffffffffffff161415611eb0576040517f08c379a0000000000000000000000000000000000000000000000000000000008152600401611ea790614b7b565b60405180910390fd5b611ebb838383612533565b611ec6600082611c33565b6001609a60008573ffffffffffffffffffffffffffffffffffffffff1673ffffffffffffffffffffffffffffffffffffffff1681526020019081526020016000206000828254611f169190614b9b565b925050819055506001609a60008473ffffffffffffffffffffffffffffffffffffffff1673ffffffffffffffffffffffffffffffffffffffff1681526020019081526020016000206000828254611f6d9190614bcf565b92505081905550816099600083815260200190815260200160002060006101000a81548173ffffffffffffffffffffffffffffffffffffffff021916908373ffffffffffffffffffffffffffffffffffffffff160217905550808273ffffffffffffffffffffffffffffffffffffffff168473ffffffffffffffffffffffffffffffffffffffff167fddf252ad1be2c89b69c2b068fc378daa952ba7f163c4a11628f55a4df523b3ef60405160405180910390a4505050565b6000603360009054906101000a900473ffffffffffffffffffffffffffffffffffffffff16905081603360006101000a81548173ffffffffffffffffffffffffffffffffffffffff021916908373ffffffffffffffffffffffffffffffffffffffff1602179055508173ffffffffffffffffffffffffffffffffffffffff168173ffffffffffffffffffffffffffffffffffffffff167f8be0079c531659141344cd1fd0a4f28419497f9722a3daafe3b4186f6b6457e060405160405180910390a35050565b612106828260405180602001604052806000815250612647565b5050565b61211382611bbf565b612152576040517f08c379a000000000000000000000000000000000000000000000000000000000815260040161214990614c97565b60405180910390fd5b8060fd6000848152602001908152602001600020908051906020019061217992919061335f565b505050565b612189848484611dca565b612195848484846126a2565b6121d4576040517f08c379a00000000000000000000000000000000000000000000000000000000081526004016121cb90614d29565b60405180910390fd5b50505050565b606060405180602001604052806000815250905090565b60606121fc82611bbf565b61223b576040517f08c379a000000000000000000000000000000000000000000000000000000000815260040161223290614dbb565b60405180910390fd5b60006122456121da565b905060008151116122655760405180602001604052806000815250612290565b8061226f84612839565b60405160200161228092919061480b565b6040516020818303038152906040525b915050919050565b6122a18161299a565b600060fd600083815260200190815260200160002080546122c190614059565b9050146122e85760fd600082815260200190815260200160002060006122e791906133e5565b5b50565b600060019054906101000a900460ff1680612311575060008054906101000a900460ff16155b612350576040517f08c379a000000000000000000000000000000000000000000000000000000000815260040161234790614a57565b60405180910390fd5b60008060019054906101000a900460ff1615905080156123a0576001600060016101000a81548160ff02191690831515021790555060016000806101000a81548160ff0219169083151502179055505b6123a8612aab565b6123b0612b84565b80156123d15760008060016101000a81548160ff0219169083151502179055505b50565b600060019054906101000a900460ff16806123fa575060008054906101000a900460ff16155b612439576040517f08c379a000000000000000000000000000000000000000000000000000000000815260040161243090614a57565b60405180910390fd5b60008060019054906101000a900460ff161590508015612489576001600060016101000a81548160ff02191690831515021790555060016000806101000a81548160ff0219169083151502179055505b612491612aab565b612499612c6d565b6124a38383612d46565b80156124c45760008060016101000a81548160ff0219169083151502179055505b505050565b60007f01ffc9a7000000000000000000000000000000000000000000000000000000007bffffffffffffffffffffffffffffffffffffffffffffffffffffffff1916827bffffffffffffffffffffffffffffffffffffffffffffffffffffffff1916149050919050565b61253e838383612e4f565b600073ffffffffffffffffffffffffffffffffffffffff168373ffffffffffffffffffffffffffffffffffffffff1614156125815761257c81612e54565b6125c0565b8173ffffffffffffffffffffffffffffffffffffffff168373ffffffffffffffffffffffffffffffffffffffff16146125bf576125be8382612e9d565b5b5b600073ffffffffffffffffffffffffffffffffffffffff168273ffffffffffffffffffffffffffffffffffffffff161415612603576125fe8161300a565b612642565b8273ffffffffffffffffffffffffffffffffffffffff168273ffffffffffffffffffffffffffffffffffffffff16146126415761264082826130db565b5b5b505050565b612651838361315a565b61265e60008484846126a2565b61269d576040517f08c379a000000000000000000000000000000000000000000000000000000000815260040161269490614d29565b60405180910390fd5b505050565b60006126c38473ffffffffffffffffffffffffffffffffffffffff16613328565b1561282c578373ffffffffffffffffffffffffffffffffffffffff1663150b7a026126ec611c2b565b8786866040518563ffffffff1660e01b815260040161270e9493929190614e30565b602060405180830381600087803b15801561272857600080fd5b505af192505050801561275957506040513d601f19601f820116820180604052508101906127569190614e91565b60015b6127dc573d8060008114612789576040519150601f19603f3d011682016040523d82523d6000602084013e61278e565b606091505b506000815114156127d4576040517f08c379a00000000000000000000000000000000000000000000000000000000081526004016127cb90614d29565b60405180910390fd5b805181602001fd5b63150b7a0260e01b7bffffffffffffffffffffffffffffffffffffffffffffffffffffffff1916817bffffffffffffffffffffffffffffffffffffffffffffffffffffffff191614915050612831565b600190505b949350505050565b60606000821415612881576040518060400160405280600181526020017f30000000000000000000000000000000000000000000000000000000000000008152509050612995565b600082905060005b600082146128b357808061289c906146f4565b915050600a826128ac9190614eed565b9150612889565b60008167ffffffffffffffff8111156128cf576128ce61396a565b5b6040519080825280601f01601f1916602001820160405280156129015781602001600182028036833780820191505090505b5090505b6000851461298e5760018261291a9190614b9b565b9150600a856129299190614f1e565b60306129359190614bcf565b60f81b81838151811061294b5761294a614463565b5b60200101907effffffffffffffffffffffffffffffffffffffffffffffffffffffffffffff1916908160001a905350600a856129879190614eed565b9450612905565b8093505050505b919050565b60006129a582610cae565b90506129b381600084612533565b6129be600083611c33565b6001609a60008373ffffffffffffffffffffffffffffffffffffffff1673ffffffffffffffffffffffffffffffffffffffff1681526020019081526020016000206000828254612a0e9190614b9b565b925050819055506099600083815260200190815260200160002060006101000a81549073ffffffffffffffffffffffffffffffffffffffff021916905581600073ffffffffffffffffffffffffffffffffffffffff168273ffffffffffffffffffffffffffffffffffffffff167fddf252ad1be2c89b69c2b068fc378daa952ba7f163c4a11628f55a4df523b3ef60405160405180910390a45050565b600060019054906101000a900460ff1680612ad1575060008054906101000a900460ff16155b612b10576040517f08c379a0000000000000000000000000000000000000000000000000000000008152600401612b0790614a57565b60405180910390fd5b60008060019054906101000a900460ff161590508015612b60576001600060016101000a81548160ff02191690831515021790555060016000806101000a81548160ff0219169083151502179055505b8015612b815760008060016101000a81548160ff0219169083151502179055505b50565b600060019054906101000a900460ff1680612baa575060008054906101000a900460ff16155b612be9576040517f08c379a0000000000000000000000000000000000000000000000000000000008152600401612be090614a57565b60405180910390fd5b60008060019054906101000a900460ff161590508015612c39576001600060016101000a81548160ff02191690831515021790555060016000806101000a81548160ff0219169083151502179055505b612c49612c44611c2b565b612026565b8015612c6a5760008060016101000a81548160ff0219169083151502179055505b50565b600060019054906101000a900460ff1680612c93575060008054906101000a900460ff16155b612cd2576040517f08c379a0000000000000000000000000000000000000000000000000000000008152600401612cc990614a57565b60405180910390fd5b60008060019054906101000a900460ff161590508015612d22576001600060016101000a81548160ff02191690831515021790555060016000806101000a81548160ff0219169083151502179055505b8015612d435760008060016101000a81548160ff0219169083151502179055505b50565b600060019054906101000a900460ff1680612d6c575060008054906101000a900460ff16155b612dab576040517f08c379a0000000000000000000000000000000000000000000000000000000008152600401612da290614a57565b60405180910390fd5b60008060019054906101000a900460ff161590508015612dfb576001600060016101000a81548160ff02191690831515021790555060016000806101000a81548160ff0219169083151502179055505b8260979080519060200190612e1192919061335f565b508160989080519060200190612e2892919061335f565b508015612e4a5760008060016101000a81548160ff0219169083151502179055505b505050565b505050565b60cb8054905060cc60008381526020019081526020016000208190555060cb81908060018154018082558091505060019003906000526020600020016000909190919091505550565b60006001612eaa84610d60565b612eb49190614b9b565b9050600060ca6000848152602001908152602001600020549050818114612f9957600060c960008673ffffffffffffffffffffffffffffffffffffffff1673ffffffffffffffffffffffffffffffffffffffff16815260200190815260200160002060008481526020019081526020016000205490508060c960008773ffffffffffffffffffffffffffffffffffffffff1673ffffffffffffffffffffffffffffffffffffffff1681526020019081526020016000206000848152602001908152602001600020819055508160ca600083815260200190815260200160002081905550505b60ca60008481526020019081526020016000206000905560c960008573ffffffffffffffffffffffffffffffffffffffff1673ffffffffffffffffffffffffffffffffffffffff16815260200190815260200160002060008381526020019081526020016000206000905550505050565b6000600160cb8054905061301e9190614b9b565b9050600060cc6000848152602001908152602001600020549050600060cb838154811061304e5761304d614463565b5b906000526020600020015490508060cb83815481106130705761306f614463565b5b90600052602060002001819055508160cc60008381526020019081526020016000208190555060cc60008581526020019081526020016000206000905560cb8054806130bf576130be614f4f565b5b6001900381819060005260206000200160009055905550505050565b60006130e683610d60565b90508160c960008573ffffffffffffffffffffffffffffffffffffffff1673ffffffffffffffffffffffffffffffffffffffff1681526020019081526020016000206000838152602001908152602001600020819055508060ca600084815260200190815260200160002081905550505050565b600073ffffffffffffffffffffffffffffffffffffffff168273ffffffffffffffffffffffffffffffffffffffff1614156131ca576040517f08c379a00000000000000000000000000000000000000000000000000000000081526004016131c190614fca565b60405180910390fd5b6131d381611bbf565b15613213576040517f08c379a000000000000000000000000000000000000000000000000000000000815260040161320a90615036565b60405180910390fd5b61321f60008383612533565b6001609a60008473ffffffffffffffffffffffffffffffffffffffff1673ffffffffffffffffffffffffffffffffffffffff168152602001908152602001600020600082825461326f9190614bcf565b92505081905550816099600083815260200190815260200160002060006101000a81548173ffffffffffffffffffffffffffffffffffffffff021916908373ffffffffffffffffffffffffffffffffffffffff160217905550808273ffffffffffffffffffffffffffffffffffffffff16600073ffffffffffffffffffffffffffffffffffffffff167fddf252ad1be2c89b69c2b068fc378daa952ba7f163c4a11628f55a4df523b3ef60405160405180910390a45050565b600080823b905060008111915050919050565b508054600082556002029060005260206000209081019061335c9190613425565b50565b82805461336b90614059565b90600052602060002090601f01602090048101928261338d57600085556133d4565b82601f106133a657805160ff19168380011785556133d4565b828001600101855582156133d4579182015b828111156133d35782518255916020019190600101906133b8565b5b5090506133e1919061346b565b5090565b5080546133f190614059565b6000825580601f106134035750613422565b601f016020900490600052602060002090810190613421919061346b565b5b50565b5b8082111561346757600080820160006101000a81549073ffffffffffffffffffffffffffffffffffffffff0219169055600182016000905550600201613426565b5090565b5b8082111561348457600081600090555060010161346c565b5090565b6000604051905090565b600080fd5b600080fd5b60007fffffffff0000000000000000000000000000000000000000000000000000000082169050919050565b6134d18161349c565b81146134dc57600080fd5b50565b6000813590506134ee816134c8565b92915050565b60006020828403121561350a57613509613492565b5b6000613518848285016134df565b91505092915050565b60008115159050919050565b61353681613521565b82525050565b6000602082019050613551600083018461352d565b92915050565b600081519050919050565b600082825260208201905092915050565b60005b83811015613591578082015181840152602081019050613576565b838111156135a0576000848401525b50505050565b6000601f19601f8301169050919050565b60006135c282613557565b6135cc8185613562565b93506135dc818560208601613573565b6135e5816135a6565b840191505092915050565b6000602082019050818103600083015261360a81846135b7565b905092915050565b6000819050919050565b61362581613612565b811461363057600080fd5b50565b6000813590506136428161361c565b92915050565b60006020828403121561365e5761365d613492565b5b600061366c84828501613633565b91505092915050565b600073ffffffffffffffffffffffffffffffffffffffff82169050919050565b60006136a082613675565b9050919050565b6136b081613695565b82525050565b60006020820190506136cb60008301846136a7565b92915050565b6136da81613695565b81146136e557600080fd5b50565b6000813590506136f7816136d1565b92915050565b6000806040838503121561371457613713613492565b5b6000613722858286016136e8565b925050602061373385828601613633565b9150509250929050565b600080fd5b600080fd5b600080fd5b60008083601f8401126137625761376161373d565b5b8235905067ffffffffffffffff81111561377f5761377e613742565b5b60208301915083600182028301111561379b5761379a613747565b5b9250929050565b6000806000806000608086880312156137be576137bd613492565b5b60006137cc888289016136e8565b95505060206137dd888289016136e8565b94505060406137ee88828901613633565b935050606086013567ffffffffffffffff81111561380f5761380e613497565b5b61381b8882890161374c565b92509250509295509295909350565b6138338161349c565b82525050565b600060208201905061384e600083018461382a565b92915050565b61385d81613612565b82525050565b60006020820190506138786000830184613854565b92915050565b60008060006060848603121561389757613896613492565b5b60006138a5868287016136e8565b93505060206138b6868287016136e8565b92505060406138c786828701613633565b9150509250925092565b6000602082840312156138e7576138e6613492565b5b60006138f5848285016136e8565b91505092915050565b61390781613521565b811461391257600080fd5b50565b600081359050613924816138fe565b92915050565b6000806040838503121561394157613940613492565b5b600061394f858286016136e8565b925050602061396085828601613915565b9150509250929050565b7f4e487b7100000000000000000000000000000000000000000000000000000000600052604160045260246000fd5b6139a2826135a6565b810181811067ffffffffffffffff821117156139c1576139c061396a565b5b80604052505050565b60006139d4613488565b90506139e08282613999565b919050565b600067ffffffffffffffff821115613a00576139ff61396a565b5b602082029050602081019050919050565b600080fd5b6000613a2182613695565b9050919050565b613a3181613a16565b8114613a3c57600080fd5b50565b600081359050613a4e81613a28565b92915050565b600060408284031215613a6a57613a69613a11565b5b613a7460406139ca565b90506000613a8484828501613a3f565b6000830152506020613a9884828501613633565b60208301525092915050565b6000613ab7613ab2846139e5565b6139ca565b90508083825260208201905060408402830185811115613ada57613ad9613747565b5b835b81811015613b035780613aef8882613a54565b845260208401935050604081019050613adc565b5050509392505050565b600082601f830112613b2257613b2161373d565b5b8135613b32848260208601613aa4565b91505092915050565b600080fd5b600067ffffffffffffffff821115613b5b57613b5a61396a565b5b613b64826135a6565b9050602081019050919050565b82818337600083830152505050565b6000613b93613b8e84613b40565b6139ca565b905082815260208101848484011115613baf57613bae613b3b565b5b613bba848285613b71565b509392505050565b600082601f830112613bd757613bd661373d565b5b8135613be7848260208601613b80565b91505092915050565b60008060408385031215613c0757613c06613492565b5b600083013567ffffffffffffffff811115613c2557613c24613497565b5b613c3185828601613b0d565b925050602083013567ffffffffffffffff811115613c5257613c51613497565b5b613c5e85828601613bc2565b9150509250929050565b600067ffffffffffffffff821115613c8357613c8261396a565b5b613c8c826135a6565b9050602081019050919050565b6000613cac613ca784613c68565b6139ca565b905082815260208101848484011115613cc857613cc7613b3b565b5b613cd3848285613b71565b509392505050565b600082601f830112613cf057613cef61373d565b5b8135613d00848260208601613c99565b91505092915050565b60008060008060808587031215613d2357613d22613492565b5b6000613d31878288016136e8565b9450506020613d42878288016136e8565b9350506040613d5387828801613633565b925050606085013567ffffffffffffffff811115613d7457613d73613497565b5b613d8087828801613cdb565b91505092959194509250565b60008060408385031215613da357613da2613492565b5b6000613db185828601613633565b9250506020613dc285828601613633565b9150509250929050565b6000819050919050565b6000613df1613dec613de784613675565b613dcc565b613675565b9050919050565b6000613e0382613dd6565b9050919050565b6000613e1582613df8565b9050919050565b613e2581613e0a565b82525050565b6000604082019050613e406000830185613e1c565b613e4d6020830184613854565b9392505050565b600081519050919050565b600082825260208201905092915050565b6000819050602082019050919050565b613e8981613e0a565b82525050565b613e9881613612565b82525050565b604082016000820151613eb46000850182613e80565b506020820151613ec76020850182613e8f565b50505050565b6000613ed98383613e9e565b60408301905092915050565b6000602082019050919050565b6000613efd82613e54565b613f078185613e5f565b9350613f1283613e70565b8060005b83811015613f43578151613f2a8882613ecd565b9750613f3583613ee5565b925050600181019050613f16565b5085935050505092915050565b60006020820190508181036000830152613f6a8184613ef2565b905092915050565b60008060408385031215613f8957613f88613492565b5b6000613f97858286016136e8565b9250506020613fa8858286016136e8565b9150509250929050565b60008060408385031215613fc957613fc8613492565b5b600083013567ffffffffffffffff811115613fe757613fe6613497565b5b613ff385828601613bc2565b925050602083013567ffffffffffffffff81111561401457614013613497565b5b61402085828601613bc2565b9150509250929050565b7f4e487b7100000000000000000000000000000000000000000000000000000000600052602260045260246000fd5b6000600282049050600182168061407157607f821691505b602082108114156140855761408461402a565b5b50919050565b7f4552433732313a20617070726f76656420717565727920666f72206e6f6e657860008201527f697374656e7420746f6b656e0000000000000000000000000000000000000000602082015250565b60006140e7602c83613562565b91506140f28261408b565b604082019050919050565b60006020820190508181036000830152614116816140da565b9050919050565b7f4552433732313a20617070726f76616c20746f2063757272656e74206f776e6560008201527f7200000000000000000000000000000000000000000000000000000000000000602082015250565b6000614179602183613562565b91506141848261411d565b604082019050919050565b600060208201905081810360008301526141a88161416c565b9050919050565b7f4552433732313a20617070726f76652063616c6c6572206973206e6f74206f7760008201527f6e6572206e6f7220617070726f76656420666f7220616c6c0000000000000000602082015250565b600061420b603883613562565b9150614216826141af565b604082019050919050565b6000602082019050818103600083015261423a816141fe565b9050919050565b7f4552433732313a207472616e736665722063616c6c6572206973206e6f74206f60008201527f776e6572206e6f7220617070726f766564000000000000000000000000000000602082015250565b600061429d603183613562565b91506142a882614241565b604082019050919050565b600060208201905081810360008301526142cc81614290565b9050919050565b7f455243373231456e756d657261626c653a206f776e657220696e646578206f7560008201527f74206f6620626f756e6473000000000000000000000000000000000000000000602082015250565b600061432f602b83613562565b915061433a826142d3565b604082019050919050565b6000602082019050818103600083015261435e81614322565b9050919050565b7f4f776e61626c653a2063616c6c6572206973206e6f7420746865206f776e6572600082015250565b600061439b602083613562565b91506143a682614365565b602082019050919050565b600060208201905081810360008301526143ca8161438e565b9050919050565b7f455243373231456e756d657261626c653a20676c6f62616c20696e646578206f60008201527f7574206f6620626f756e64730000000000000000000000000000000000000000602082015250565b600061442d602c83613562565b9150614438826143d1565b604082019050919050565b6000602082019050818103600083015261445c81614420565b9050919050565b7f4e487b7100000000000000000000000000000000000000000000000000000000600052603260045260246000fd5b7f4552433732313a206f776e657220717565727920666f72206e6f6e657869737460008201527f656e7420746f6b656e0000000000000000000000000000000000000000000000602082015250565b60006144ee602983613562565b91506144f982614492565b604082019050919050565b6000602082019050818103600083015261451d816144e1565b9050919050565b7f4552433732313a2062616c616e636520717565727920666f7220746865207a6560008201527f726f206164647265737300000000000000000000000000000000000000000000602082015250565b6000614580602a83613562565b915061458b82614524565b604082019050919050565b600060208201905081810360008301526145af81614573565b9050919050565b7f4552433732313a20617070726f766520746f2063616c6c657200000000000000600082015250565b60006145ec601983613562565b91506145f7826145b6565b602082019050919050565b6000602082019050818103600083015261461b816145df565b9050919050565b7f42756e646c6520666565206e6f74207061696400000000000000000000000000600082015250565b6000614658601383613562565b915061466382614622565b602082019050919050565b600060208201905081810360008301526146878161464b565b9050919050565b60006060820190506146a360008301866136a7565b6146b060208301856136a7565b6146bd6040830184613854565b949350505050565b7f4e487b7100000000000000000000000000000000000000000000000000000000600052601160045260246000fd5b60006146ff82613612565b91507fffffffffffffffffffffffffffffffffffffffffffffffffffffffffffffffff821415614732576147316146c5565b5b600182019050919050565b7f45524337323155524953746f726167653a2055524920717565727920666f722060008201527f6e6f6e6578697374656e7420746f6b656e000000000000000000000000000000602082015250565b6000614799603183613562565b91506147a48261473d565b604082019050919050565b600060208201905081810360008301526147c88161478c565b9050919050565b600081905092915050565b60006147e582613557565b6147ef81856147cf565b93506147ff818560208601613573565b80840191505092915050565b600061481782856147da565b915061482382846147da565b91508190509392505050565b7f4552433732314d657461646174613a2042756e64656c656420746f6b656e732060008201527f717565727920666f72206e6f6e6578697374656e7420746f6b656e0000000000602082015250565b600061488b603b83613562565b91506148968261482f565b604082019050919050565b600060208201905081810360008301526148ba8161487e565b9050919050565b7f4f776e61626c653a206e6577206f776e657220697320746865207a65726f206160008201527f6464726573730000000000000000000000000000000000000000000000000000602082015250565b600061491d602683613562565b9150614928826148c1565b604082019050919050565b6000602082019050818103600083015261494c81614910565b9050919050565b7f4552433732313a207472616e73666572206f6620746f6b656e2074686174206960008201527f73206e6f74206f776e0000000000000000000000000000000000000000000000602082015250565b60006149af602983613562565b91506149ba82614953565b604082019050919050565b600060208201905081810360008301526149de816149a2565b9050919050565b7f496e697469616c697a61626c653a20636f6e747261637420697320616c72656160008201527f647920696e697469616c697a6564000000000000000000000000000000000000602082015250565b6000614a41602e83613562565b9150614a4c826149e5565b604082019050919050565b60006020820190508181036000830152614a7081614a34565b9050919050565b7f4552433732313a206f70657261746f7220717565727920666f72206e6f6e657860008201527f697374656e7420746f6b656e0000000000000000000000000000000000000000602082015250565b6000614ad3602c83613562565b9150614ade82614a77565b604082019050919050565b60006020820190508181036000830152614b0281614ac6565b9050919050565b7f4552433732313a207472616e7366657220746f20746865207a65726f2061646460008201527f7265737300000000000000000000000000000000000000000000000000000000602082015250565b6000614b65602483613562565b9150614b7082614b09565b604082019050919050565b60006020820190508181036000830152614b9481614b58565b9050919050565b6000614ba682613612565b9150614bb183613612565b925082821015614bc457614bc36146c5565b5b828203905092915050565b6000614bda82613612565b9150614be583613612565b9250827fffffffffffffffffffffffffffffffffffffffffffffffffffffffffffffffff03821115614c1a57614c196146c5565b5b828201905092915050565b7f45524337323155524953746f726167653a2055524920736574206f66206e6f6e60008201527f6578697374656e7420746f6b656e000000000000000000000000000000000000602082015250565b6000614c81602e83613562565b9150614c8c82614c25565b604082019050919050565b60006020820190508181036000830152614cb081614c74565b9050919050565b7f4552433732313a207472616e7366657220746f206e6f6e20455243373231526560008201527f63656976657220696d706c656d656e7465720000000000000000000000000000602082015250565b6000614d13603283613562565b9150614d1e82614cb7565b604082019050919050565b60006020820190508181036000830152614d4281614d06565b9050919050565b7f4552433732314d657461646174613a2055524920717565727920666f72206e6f60008201527f6e6578697374656e7420746f6b656e0000000000000000000000000000000000602082015250565b6000614da5602f83613562565b9150614db082614d49565b604082019050919050565b60006020820190508181036000830152614dd481614d98565b9050919050565b600081519050919050565b600082825260208201905092915050565b6000614e0282614ddb565b614e0c8185614de6565b9350614e1c818560208601613573565b614e25816135a6565b840191505092915050565b6000608082019050614e4560008301876136a7565b614e5260208301866136a7565b614e5f6040830185613854565b8181036060830152614e718184614df7565b905095945050505050565b600081519050614e8b816134c8565b92915050565b600060208284031215614ea757614ea6613492565b5b6000614eb584828501614e7c565b91505092915050565b7f4e487b7100000000000000000000000000000000000000000000000000000000600052601260045260246000fd5b6000614ef882613612565b9150614f0383613612565b925082614f1357614f12614ebe565b5b828204905092915050565b6000614f2982613612565b9150614f3483613612565b925082614f4457614f43614ebe565b5b828206905092915050565b7f4e487b7100000000000000000000000000000000000000000000000000000000600052603160045260246000fd5b7f4552433732313a206d696e7420746f20746865207a65726f2061646472657373600082015250565b6000614fb4602083613562565b9150614fbf82614f7e565b602082019050919050565b60006020820190508181036000830152614fe381614fa7565b9050919050565b7f4552433732313a20746f6b656e20616c7265616479206d696e74656400000000600082015250565b6000615020601c83613562565b915061502b82614fea565b602082019050919050565b6000602082019050818103600083015261504f81615013565b905091905056fea2646970667358221220cc9f32c8eba776ab943ccb997430d228cdcfe0c9d116aaf185b85f303975f4eb64736f6c63430008090033",
  "linkReferences": {},
  "deployedLinkReferences": {}
}